{
  "address": "0x019ac24154842df3D9D60Fb69B742F56d4D43C04",
  "abi": [
    {
      "inputs": [],
      "name": "CampaignNotFound",
      "type": "error"
    },
    {
      "inputs": [],
      "name": "EmptyBatch",
      "type": "error"
    },
    {
      "inputs": [],
      "name": "NotCampaignOwner",
      "type": "error"
    },
    {
      "inputs": [],
      "name": "OutOfBounds",
      "type": "error"
    },
    {
      "inputs": [],
      "name": "RangeOrder",
      "type": "error"
    },
    {
      "inputs": [],
      "name": "SenderNotAllowed",
      "type": "error"
    },
    {
      "inputs": [
        {
          "internalType": "bytes32",
          "name": "handle",
          "type": "bytes32"
        },
        {
          "internalType": "address",
          "name": "sender",
          "type": "address"
        }
      ],
      "name": "SenderNotAllowedToUseHandle",
      "type": "error"
    },
    {
      "inputs": [],
      "name": "ZamaProtocolUnsupported",
      "type": "error"
    },
    {
      "inputs": [],
      "name": "ZeroAddress",
      "type": "error"
    },
    {
      "anonymous": false,
      "inputs": [
        {
          "indexed": true,
          "internalType": "uint256",
          "name": "campaignId",
          "type": "uint256"
        },
        {
          "indexed": true,
          "internalType": "address",
          "name": "owner",
          "type": "address"
        },
        {
          "indexed": false,
          "internalType": "string",
          "name": "name",
          "type": "string"
        }
      ],
      "name": "CampaignCreated",
      "type": "event"
    },
    {
      "anonymous": false,
      "inputs": [
        {
          "indexed": true,
          "internalType": "uint256",
          "name": "campaignId",
          "type": "uint256"
        },
        {
          "indexed": true,
          "internalType": "address",
          "name": "prevOwner",
          "type": "address"
        },
        {
          "indexed": true,
          "internalType": "address",
          "name": "newOwner",
          "type": "address"
        }
      ],
      "name": "CampaignOwnershipTransferred",
      "type": "event"
    },
    {
      "anonymous": false,
      "inputs": [
        {
          "indexed": true,
          "internalType": "uint256",
          "name": "campaignId",
          "type": "uint256"
        },
        {
          "indexed": false,
          "internalType": "uint256",
          "name": "count",
          "type": "uint256"
        }
      ],
      "name": "WhitelistAdded",
      "type": "event"
    },
    {
      "anonymous": false,
      "inputs": [
        {
          "indexed": true,
          "internalType": "uint256",
          "name": "campaignId",
          "type": "uint256"
        }
      ],
      "name": "WhitelistCleared",
      "type": "event"
    },
    {
      "anonymous": false,
      "inputs": [
        {
          "indexed": true,
          "internalType": "uint256",
          "name": "campaignId",
          "type": "uint256"
        },
        {
          "indexed": false,
          "internalType": "uint256",
          "name": "index",
          "type": "uint256"
        }
      ],
      "name": "WhitelistRemoved",
      "type": "event"
    },
    {
      "inputs": [
        {
          "internalType": "uint256",
          "name": "campaignId",
          "type": "uint256"
        },
        {
          "internalType": "externalEaddress[]",
          "name": "addrsCt",
          "type": "bytes32[]"
        },
        {
          "internalType": "bytes",
          "name": "attestation",
          "type": "bytes"
        }
      ],
      "name": "addWhitelist",
      "outputs": [],
      "stateMutability": "nonpayable",
      "type": "function"
    },
    {
      "inputs": [],
      "name": "campaignCount",
      "outputs": [
        {
          "internalType": "uint256",
          "name": "",
          "type": "uint256"
        }
      ],
      "stateMutability": "view",
      "type": "function"
    },
    {
      "inputs": [
        {
          "internalType": "uint256",
          "name": "",
          "type": "uint256"
        }
      ],
      "name": "campaigns",
      "outputs": [
        {
          "internalType": "address",
          "name": "owner",
          "type": "address"
        },
        {
          "internalType": "bool",
          "name": "exists",
          "type": "bool"
        },
        {
          "internalType": "string",
          "name": "name",
          "type": "string"
        }
      ],
      "stateMutability": "view",
      "type": "function"
    },
    {
      "inputs": [
        {
          "internalType": "uint256",
          "name": "campaignId",
          "type": "uint256"
        },
        {
          "internalType": "externalEaddress",
          "name": "userAddrCt",
          "type": "bytes32"
        },
        {
          "internalType": "bytes",
          "name": "attestation",
          "type": "bytes"
        }
      ],
      "name": "checkAccessAll",
      "outputs": [
        {
          "internalType": "ebool",
          "name": "",
          "type": "bytes32"
        }
      ],
      "stateMutability": "nonpayable",
      "type": "function"
    },
    {
      "inputs": [
        {
          "internalType": "uint256",
          "name": "campaignId",
          "type": "uint256"
        },
        {
          "internalType": "externalEaddress",
          "name": "userAddrCt",
          "type": "bytes32"
        },
        {
          "internalType": "bytes",
          "name": "attestation",
          "type": "bytes"
        },
        {
          "internalType": "uint256",
          "name": "start",
          "type": "uint256"
        },
        {
          "internalType": "uint256",
          "name": "end",
          "type": "uint256"
        }
      ],
      "name": "checkAccessRange",
      "outputs": [
        {
          "internalType": "ebool",
          "name": "",
          "type": "bytes32"
        }
      ],
      "stateMutability": "nonpayable",
      "type": "function"
    },
    {
      "inputs": [
        {
          "internalType": "uint256",
          "name": "campaignId",
          "type": "uint256"
        }
      ],
      "name": "clearWhitelist",
      "outputs": [],
      "stateMutability": "nonpayable",
      "type": "function"
    },
    {
      "inputs": [],
      "name": "confidentialProtocolId",
      "outputs": [
        {
          "internalType": "uint256",
          "name": "",
          "type": "uint256"
        }
      ],
      "stateMutability": "view",
      "type": "function"
    },
    {
      "inputs": [
        {
          "internalType": "string",
          "name": "name",
          "type": "string"
        }
      ],
      "name": "createCampaign",
      "outputs": [
        {
          "internalType": "uint256",
          "name": "campaignId",
          "type": "uint256"
        }
      ],
      "stateMutability": "nonpayable",
      "type": "function"
    },
    {
      "inputs": [
        {
          "internalType": "uint256",
          "name": "campaignId",
          "type": "uint256"
        }
      ],
      "name": "getCampaignInfo",
      "outputs": [
        {
          "internalType": "address",
          "name": "owner",
          "type": "address"
        },
        {
          "internalType": "bool",
          "name": "exists",
          "type": "bool"
        },
        {
          "internalType": "string",
          "name": "name",
          "type": "string"
        },
        {
          "internalType": "uint256",
          "name": "whitelistSize",
          "type": "uint256"
        }
      ],
      "stateMutability": "view",
      "type": "function"
    },
    {
      "inputs": [
        {
          "internalType": "uint256",
          "name": "campaignId",
          "type": "uint256"
        },
        {
          "internalType": "uint256",
          "name": "i",
          "type": "uint256"
        }
      ],
      "name": "getEncryptedWhitelistAt",
      "outputs": [
        {
          "internalType": "eaddress",
          "name": "",
          "type": "bytes32"
        }
      ],
      "stateMutability": "view",
      "type": "function"
    },
    {
      "inputs": [
        {
          "internalType": "uint256",
          "name": "campaignId",
          "type": "uint256"
        }
      ],
      "name": "getMyLastCheck",
      "outputs": [
        {
          "internalType": "ebool",
          "name": "",
          "type": "bytes32"
        }
      ],
      "stateMutability": "view",
      "type": "function"
    },
    {
      "inputs": [
        {
          "internalType": "uint256",
          "name": "campaignId",
          "type": "uint256"
        },
        {
          "internalType": "address",
          "name": "account",
          "type": "address"
        }
      ],
      "name": "isCampaignOwner",
      "outputs": [
        {
          "internalType": "bool",
          "name": "",
          "type": "bool"
        }
      ],
      "stateMutability": "view",
      "type": "function"
    },
    {
      "inputs": [
        {
          "internalType": "uint256",
          "name": "campaignId",
          "type": "uint256"
        },
        {
          "internalType": "uint256",
          "name": "index",
          "type": "uint256"
        }
      ],
      "name": "removeWhitelistAt",
      "outputs": [],
      "stateMutability": "nonpayable",
      "type": "function"
    },
    {
      "inputs": [
        {
          "internalType": "uint256",
          "name": "campaignId",
          "type": "uint256"
        },
        {
          "internalType": "uint256[]",
          "name": "indices",
          "type": "uint256[]"
        }
      ],
      "name": "removeWhitelistBatch",
      "outputs": [],
      "stateMutability": "nonpayable",
      "type": "function"
    },
    {
      "inputs": [
        {
          "internalType": "uint256",
          "name": "campaignId",
          "type": "uint256"
        },
        {
          "internalType": "address",
          "name": "newOwner",
          "type": "address"
        }
      ],
      "name": "transferCampaignOwnership",
      "outputs": [],
      "stateMutability": "nonpayable",
      "type": "function"
    },
    {
      "inputs": [
        {
          "internalType": "uint256",
          "name": "",
          "type": "uint256"
        }
      ],
      "name": "wlSize",
      "outputs": [
        {
          "internalType": "uint256",
          "name": "",
          "type": "uint256"
        }
      ],
      "stateMutability": "view",
      "type": "function"
    }
  ],
  "transactionHash": "0xd97f775c7f3c515340aed1e35c218e4321123916f6d1ffc1c65eda7eb027fff1",
  "args": [],
  "numDeployments": 1,
  "solcInputHash": "d9a2b6a6e5af95277715db0096e1d182",
  "bytecode": "0x6080604052346102105761001161024a565b504660010361012a5761002261024a565b5061002b610215565b73ca2e8f1f656cd25c01f05d0b243ab1ecd4a8ffb6815273d82385dada1ae3e969447f20a3164f6213100e7560208201527377627828a55156b04ac0dc0eb30467f1a552bb0360408201525b80517f9e7b61f58c47dc699ac88507c4f5bb9f121c03808c5676a8078fe583e464970080546001600160a01b039283166001600160a01b03199182161790915560208301517f9e7b61f58c47dc699ac88507c4f5bb9f121c03808c5676a8078fe583e464970180549184169183169190911790556040928301517f9e7b61f58c47dc699ac88507c4f5bb9f121c03808c5676a8078fe583e46497028054919093169116179055516118ba90816102688239f35b4662aa36a7036101955761013c61024a565b50610145610215565b73f0ffdc93b7e186bc2f8cb3daa75d86d1930a433d81527392c920834ec8941d2c77d188936e1f7a6f49c127602082015273be0e383937d564d7ff0bc3b46c51f0bf8d5c311a6040820152610077565b46617a69036101ff576101a661024a565b506101af610215565b7350157cffd6bbfa2dece204a89ec419c23ef5755d815273e3a9105a3a932253a70f126eb1e3b589c643dd24602082015273901f8942346f7ab3a01f6d7613119bca447bb0306040820152610077565b6373cac13b60e01b60005260046000fd5b600080fd5b60405190606082016001600160401b0381118382101761023457604052565b634e487b7160e01b600052604160045260246000fd5b610252610215565b9060008252600060208301526000604083015256fe6080604052600436101561001257600080fd5b6000803560e01c806312348a1e14610f7b578063141961bc14610f1757806326da8ad914610e9157806347f94fbd14610c965780634feedaa114610bd85780637274e30d14610bbb57806378089ce2146108415780637c639966146107da5780638927b030146107b7578063e38e2b8214610712578063eb9968f4146106e8578063ee4eb94f14610539578063ee7cfc76146104dc578063f39fb757146103bf578063fc6b2fa3146103235763fdbf9ff1146100cd57600080fd5b346103205760203660031901126103205760043567ffffffffffffffff811161031e576100fe9036906004016112e0565b6101088354611560565b91828455604051906101198261134d565b33825260016020830192818452610131368685611519565b60408281019182528789526020849052882091518254955160ff60a01b1960a086811b87900393909316166001600160a81b031990971696909617951515901b60ff60a01b1694909417815592518051939091019067ffffffffffffffff841161030a5761019f8254611313565b601f81116102c5575b50958592916020978890601f871160011461023d579580917fc04c663886cae794dc52158f70fe6c8ee3b0140d4f48647282f9b693ff688a6596978592610232575b50508160011b916000199060031b1c19161790555b846040519288845281898501526040840137604085830101526040813395601f80199101168101030190a3604051908152f35b0151905038806101ea565b828452818420969190601f198316855b8181106102ab5750917fc04c663886cae794dc52158f70fe6c8ee3b0140d4f48647282f9b693ff688a65979891846001959410610292575b505050811b0190556101ff565b015160001960f88460031b161c19169055388080610285565b838301518a556001909901988b9850928c01928c0161024d565b82885260208820601f860160051c81019160208710610300575b601f0160051c01905b8181106102f557506101a8565b8881556001016102e8565b90915081906102df565b634e487b7160e01b87526041600452602487fd5b505b80fd5b503461032057602036600319011261032057600435808252600160205260ff604083205460a01c16156103b057808252600160205260408220546001600160a01b031633036103a15780825260036020528160408120557f94b1460beb8019f9122811207392ee47b8c6e9c12a67ef54e3dc0de6448bcb618280a280f35b632552cded60e11b8252600482fd5b6337f9b70b60e11b8252600482fd5b5034610320576103ce36611486565b818352600160205260ff604084205460a01c16156104cd57818352600160205260408320546001600160a01b031633036104be578183526003602052604083205480156104af57808210156104af57600019810190811161049b5781816020927f348af833d1a671584bcd1471655290c0c011d31d02cf651ffcb834ee46374072940361046c575b848652600383526040862055604051908152a280f35b848652600283526040862081875283526040862054858752600284526040872083885284526040872055610456565b634e487b7160e01b84526011600452602484fd5b632d0483c560e21b8452600484fd5b632552cded60e11b8352600483fd5b6337f9b70b60e11b8352600483fd5b5034610320576020906104ee366114cd565b90918281526001845260ff604082205460a01c169283610516575b5050506040519015158152f35b81526001845260409020546001600160a01b039182169116149050388080610509565b50346103205760403660031901126103205760043560243567ffffffffffffffff81116106e45761056e90369060040161149c565b9190818452600160205260ff604085205460a01c16156106d557818452600160205260408420546001600160a01b031633036106c657818452600360205260408420549283156106b75780156106a857845b8181106105d95750505082526003602052604082205580f35b6105e48183856114f3565b3594808610156106995760001981019080821161068557818703610652575b1561063e5790847f348af833d1a671584bcd1471655290c0c011d31d02cf651ffcb834ee46374072602060019498604051908152a2016105c0565b634e487b7160e01b87526011600452602487fd5b8588526002602052604088208289526020526040882054868952600260205260408920888a526020526040892055610603565b634e487b7160e01b88526011600452602488fd5b632d0483c560e21b8752600487fd5b63c2e5347d60e01b8552600485fd5b632d0483c560e21b8552600485fd5b632552cded60e11b8452600484fd5b6337f9b70b60e11b8452600484fd5b8280fd5b50346103205760203660031901126103205760406020916004358152600383522054604051908152f35b50346103205760203660031901126103205760043590818152600160205260408120906107ad60408051926107468461134d565b84546001600160a01b038116855260a01c60ff1615156020850190815294610770906001016113a1565b93848382015260018060a01b0390511694511515958152600360205220549160405194859485526020850152608060408501526080840190611445565b9060608301520390f35b503461032057806003193601126103205760206107d26116d0565b604051908152f35b50346103205760203660031901126103205760043590818152600160205260ff604082205460a01c161561083257604091815260046020522060018060a01b0333166000526020526020604060002054604051908152f35b6337f9b70b60e11b8152600490fd5b50346103205760603660031901126103205760043560443567ffffffffffffffff81116106e4576108769036906004016112e0565b9190818452600160205260ff604085205460a01c16156106d5576108ac6108b49183865260036020526040862054943691611519565b602435611585565b916108bf3384611701565b15610bac57916108ce8461181c565b92849180155b828410610a02575050505081156109f1575b60409081516108f5838261137f565b6001815260208101601f1984013682378151156109dd5784815260008051602061188e833981519152546001600160a01b031690813b156109d9578451637d6e912360e11b815260206004820152925160248401819052879284929091604484019190855b8181106109bd575050508383809203925af180156109b35761099a575b508352600460209081529281902033600090815290845281902082905551908152f35b6109a585809261137f565b6109af5738610977565b8380fd5b83513d87823e3d90fd5b825184528b96508795506020938401939092019160010161095a565b8680fd5b634e487b7160e01b86526032600452602486fd5b90506109fc8261181c565b906108e6565b90919294848752600260205260408720868852602052604087205483838215610b9c575b610b8a575b602090606460018060a01b0360008051602061186e8339815191525416938b604051958694859363f77f3f1d60e01b8552600485015260248401528160448401525af1908115610b7f578891610b4c575b50808215610b3b575b15610b28575b602090606460018060a01b0360008051602061186e8339815191525416938a60405195869485936363a2db2960e01b8552600485015260248401528160448401525af18015610b1d578790610ae9575b6001915095019291906108d4565b5060203d8111610b16575b610afe818361137f565b60208260009281010312610320575060019051610adb565b503d610af4565b6040513d89823e3d90fd5b506020610b348861181c565b9050610a8b565b9150610b468861181c565b91610a85565b905060203d8111610b78575b610b62818361137f565b6020826000928101031261032057505138610a7c565b503d610b58565b6040513d8a823e3d90fd5b506020610b9561179b565b9050610a2b565b9150610ba661179b565b91610a26565b6323dada5360e01b8452600484fd5b503461032057806003193601126103205760209054604051908152f35b503461032057610be7366114cd565b818352600160205260ff604084205460a01c16156104cd57818352600160205260408320546001600160a01b031633036104be576001600160a01b0316908115610c87578083526001602052604083205482906001600160a01b0316827f90108bbb35709c4a9cf1515b114681aff2c4a9982d6232e38d7faf8f12fd1a1d8680a4825260016020526040822080546001600160a01b031916909117905580f35b63d92e233d60e01b8352600483fd5b50346103205760603660031901126103205760043560243567ffffffffffffffff81116106e457610ccb90369060040161149c565b9060443567ffffffffffffffff8111610e8d57610cec9036906004016112e0565b848693929352600160205260ff604087205460a01c1615610e7e57848652600160205260408620546001600160a01b03163303610e6f578315610e60579190848652600360205260408620549286925b858410610d805787877faad165f12d14ef89c86ff689f11fea040a477312790cafe92e622e34b5709c6760208989848652600383526040862055604051908152a280f35b90919293610da4610d928688876114f3565b35610d9e368686611519565b90611585565b88818015610e52575b60008051602061188e833981519152546001600160a01b0316803b156106e457604051635ca4b5b160e11b8152600481019290925230602483015282908290604490829084905af18015610e4757610e2e575b5091610e24918960019452600260205260408b20828c5260205260408b2055611560565b9401929190610d3c565b81610e389161137f565b610e43578838610e00565b8880fd5b6040513d84823e3d90fd5b50610e5b61179b565b610dad565b63c2e5347d60e01b8652600486fd5b632552cded60e11b8652600486fd5b6337f9b70b60e11b8652600486fd5b8480fd5b503461032057610ea036611486565b90808352600160205260ff604084205460a01c16156104cd57808352600160205260408320546001600160a01b031633036104be5780835260036020526040832054821015610f08579160409160209382526002845282822090825283522054604051908152f35b632d0483c560e21b8352600483fd5b503461032057602036600319011261032057604060ff916004358152600160205220610f77610f4a6001835493016113a1565b60405193849360018060a01b038116855260a01c1615156020840152606060408401526060830190611445565b0390f35b50346103205760a03660031901126103205760043560443567ffffffffffffffff81116106e457610fb09036906004016112e0565b6064929192359260843591838652600160205260ff604087205460a01c1615610e7e578285116112d1578386526003602052604086205483116112c257610ffc916108ac913691611519565b6110063382611701565b156112b357906110158561181c565b939180155b82841061111f5750505050811561110e575b604090815161103b838261137f565b6001815260208101601f1984013682378151156109dd5784815260008051602061188e833981519152546001600160a01b031690813b156109d9578451637d6e912360e11b815260206004820152925160248401819052879284929091604484019190855b8181106110f2575050508383809203925af180156109b357948392916020966110e2575b50908152600485522033600090815290845281902082905551908152f35b816110ec9161137f565b386110c4565b825184528b9650879550602093840193909201916001016110a0565b90506111198261181c565b9061102c565b909192948487526002602052604087208688526020526040872054838382156112a3575b611291575b602090606460018060a01b0360008051602061186e8339815191525416938b604051958694859363f77f3f1d60e01b8552600485015260248401528160448401525af1908115610b7f57889161125c575b5080821561124b575b15611238575b602090606460018060a01b0360008051602061186e8339815191525416938a60405195869485936363a2db2960e01b8552600485015260248401528160448401525af18015610b1d578790611206575b60019150950192919061101a565b506020813d8211611230575b8161121f6020938361137f565b810103126109d957600190516111f8565b3d9150611212565b5060206112448861181c565b90506111a8565b91506112568861181c565b916111a2565b90506020813d8211611289575b816112766020938361137f565b81010312611285575138611199565b8780fd5b3d9150611269565b50602061129c61179b565b9050611148565b91506112ad61179b565b91611143565b6323dada5360e01b8552600485fd5b632d0483c560e21b8652600486fd5b63289a068960e01b8652600486fd5b9181601f8401121561130e5782359167ffffffffffffffff831161130e576020838186019501011161130e57565b600080fd5b90600182811c92168015611343575b602083101461132d57565b634e487b7160e01b600052602260045260246000fd5b91607f1691611322565b6060810190811067ffffffffffffffff82111761136957604052565b634e487b7160e01b600052604160045260246000fd5b90601f8019910116810190811067ffffffffffffffff82111761136957604052565b90604051918260008254926113b584611313565b808452936001811690811561142357506001146113dc575b506113da9250038361137f565b565b90506000929192526020600020906000915b8183106114075750509060206113da92820101386113cd565b60209193508060019154838589010152019101909184926113ee565b9050602092506113da94915060ff191682840152151560051b820101386113cd565b919082519283825260005b848110611471575050826000602080949584010152601f8019910116010190565b80602080928401015182828601015201611450565b604090600319011261130e576004359060243590565b9181601f8401121561130e5782359167ffffffffffffffff831161130e576020808501948460051b01011161130e57565b604090600319011261130e57600435906024356001600160a01b038116810361130e5790565b91908110156115035760051b0190565b634e487b7160e01b600052603260045260246000fd5b92919267ffffffffffffffff82116113695760405191611543601f8201601f19166020018461137f565b82948184528183011161130e578281602093846000960137010152565b600019811461156f5760010190565b634e487b7160e01b600052601160045260246000fd5b81519091600091156116a65760008051602061186e8339815191525460405163045fc19560e11b815260048101949094523360248501526080604485015260209184916001600160a01b0316908290859082906115e6906084830190611445565b6007606483015203925af1918215611699578192611665575b5060008051602061188e833981519152546001600160a01b0316803b1561031e57604051630f8e573b60e21b8152600481018490523360248201529082908290604490829084905af18015610e475761165757505090565b816116619161137f565b5090565b9091506020813d602011611691575b816116816020938361137f565b8101031261031e575190386115ff565b3d9150611674565b50604051903d90823e3d90fd5b506116b13383611701565b156116ba575090565b604491630276b5d960e01b825260045233602452fd5b466001036116dd57600190565b4662aa36a7036116ed5761271190565b617a6946146116fb57600090565b60001990565b60008051602061188e833981519152546040516382027b6d60e01b815260048101929092526001600160a01b039283166024830152909160209183916044918391165afa90811561178f57600091611757575090565b6020813d602011611787575b816117706020938361137f565b8101031261031e5751908115158203610320575090565b3d9150611763565b6040513d6000823e3d90fd5b60008051602061186e83398151915254604051639cd07acb60e01b815260006004820152906001600160a01b0316816044816000602094600760248401525af190811561178f576000916117ed575090565b90506020813d602011611814575b816118086020938361137f565b8101031261130e575190565b3d91506117fb565b60008051602061186e83398151915254604051639cd07acb60e01b815260048101929092526001600160a01b03168160448160006020948160248401525af190811561178f576000916117ed57509056fe9e7b61f58c47dc699ac88507c4f5bb9f121c03808c5676a8078fe583e46497019e7b61f58c47dc699ac88507c4f5bb9f121c03808c5676a8078fe583e4649700a164736f6c634300081b000a",
  "devdoc": {
    "kind": "dev",
    "methods": {},
    "version": 1
  },
  "userdoc": {
    "errors": {
      "SenderNotAllowedToUseHandle(bytes32,address)": [
        {
          "notice": "Returned if the sender is not allowed to use the handle."
        }
      ],
      "ZamaProtocolUnsupported()": [
        {
          "notice": "Returned if the Zama protocol is not supported on the current chain"
        }
      ]
    },
    "kind": "user",
    "methods": {},
    "version": 1
  },
  "storageLayout": {
    "storage": [
      {
        "astId": 41146,
        "contract": "contracts/VeilWhitelist.sol:VeilWhitelist",
        "label": "campaignCount",
        "offset": 0,
        "slot": "0",
        "type": "t_uint256"
      },
      {
        "astId": 41151,
        "contract": "contracts/VeilWhitelist.sol:VeilWhitelist",
        "label": "campaigns",
        "offset": 0,
        "slot": "1",
        "type": "t_mapping(t_uint256,t_struct(Campaign)41144_storage)"
      },
      {
        "astId": 41158,
        "contract": "contracts/VeilWhitelist.sol:VeilWhitelist",
        "label": "_wl",
        "offset": 0,
        "slot": "2",
        "type": "t_mapping(t_uint256,t_mapping(t_uint256,t_userDefinedValueType(eaddress)41982))"
      },
      {
        "astId": 41162,
        "contract": "contracts/VeilWhitelist.sol:VeilWhitelist",
        "label": "wlSize",
        "offset": 0,
        "slot": "3",
        "type": "t_mapping(t_uint256,t_uint256)"
      },
      {
        "astId": 41169,
        "contract": "contracts/VeilWhitelist.sol:VeilWhitelist",
        "label": "_lastCheck",
        "offset": 0,
        "slot": "4",
        "type": "t_mapping(t_uint256,t_mapping(t_address,t_userDefinedValueType(ebool)41852))"
      }
    ],
    "types": {
      "t_address": {
        "encoding": "inplace",
        "label": "address",
        "numberOfBytes": "20"
      },
      "t_bool": {
        "encoding": "inplace",
        "label": "bool",
        "numberOfBytes": "1"
      },
      "t_mapping(t_address,t_userDefinedValueType(ebool)41852)": {
        "encoding": "mapping",
        "key": "t_address",
        "label": "mapping(address => ebool)",
        "numberOfBytes": "32",
        "value": "t_userDefinedValueType(ebool)41852"
      },
      "t_mapping(t_uint256,t_mapping(t_address,t_userDefinedValueType(ebool)41852))": {
        "encoding": "mapping",
        "key": "t_uint256",
        "label": "mapping(uint256 => mapping(address => ebool))",
        "numberOfBytes": "32",
        "value": "t_mapping(t_address,t_userDefinedValueType(ebool)41852)"
      },
      "t_mapping(t_uint256,t_mapping(t_uint256,t_userDefinedValueType(eaddress)41982))": {
        "encoding": "mapping",
        "key": "t_uint256",
        "label": "mapping(uint256 => mapping(uint256 => eaddress))",
        "numberOfBytes": "32",
        "value": "t_mapping(t_uint256,t_userDefinedValueType(eaddress)41982)"
      },
      "t_mapping(t_uint256,t_struct(Campaign)41144_storage)": {
        "encoding": "mapping",
        "key": "t_uint256",
        "label": "mapping(uint256 => struct VeilWhitelist.Campaign)",
        "numberOfBytes": "32",
        "value": "t_struct(Campaign)41144_storage"
      },
      "t_mapping(t_uint256,t_uint256)": {
        "encoding": "mapping",
        "key": "t_uint256",
        "label": "mapping(uint256 => uint256)",
        "numberOfBytes": "32",
        "value": "t_uint256"
      },
      "t_mapping(t_uint256,t_userDefinedValueType(eaddress)41982)": {
        "encoding": "mapping",
        "key": "t_uint256",
        "label": "mapping(uint256 => eaddress)",
        "numberOfBytes": "32",
        "value": "t_userDefinedValueType(eaddress)41982"
      },
      "t_string_storage": {
        "encoding": "bytes",
        "label": "string",
        "numberOfBytes": "32"
      },
      "t_struct(Campaign)41144_storage": {
        "encoding": "inplace",
        "label": "struct VeilWhitelist.Campaign",
        "members": [
          {
            "astId": 41139,
            "contract": "contracts/VeilWhitelist.sol:VeilWhitelist",
            "label": "owner",
            "offset": 0,
            "slot": "0",
            "type": "t_address"
          },
          {
            "astId": 41141,
            "contract": "contracts/VeilWhitelist.sol:VeilWhitelist",
            "label": "exists",
            "offset": 20,
            "slot": "0",
            "type": "t_bool"
          },
          {
            "astId": 41143,
            "contract": "contracts/VeilWhitelist.sol:VeilWhitelist",
            "label": "name",
            "offset": 0,
            "slot": "1",
            "type": "t_string_storage"
          }
        ],
        "numberOfBytes": "64"
      },
      "t_uint256": {
        "encoding": "inplace",
        "label": "uint256",
        "numberOfBytes": "32"
      },
      "t_userDefinedValueType(eaddress)41982": {
        "encoding": "inplace",
        "label": "eaddress",
        "numberOfBytes": "32"
      },
      "t_userDefinedValueType(ebool)41852": {
        "encoding": "inplace",
        "label": "ebool",
        "numberOfBytes": "32"
      }
    }
  }
}